:100000000C94E5010C941D020C944A020C940D0210
:100010000C940D020C940D020C940D020C9410071C
:100020000C940D020C94F2070C940D020C940D022A
:100030000C940D020C940D020C940D020C940D0204
:100040000C9477020C940D020C94CE030C941504BE
:100050000C940D020C940D020C940D020C940D02E4
:100060000C940D020C940D0207634236B79BD8A77F
:100070001A39685618AEBAAB558C1D3CB7CC5763CD
:10008000BD6DEDFD753EF6177231BF000000803F7B
:1000900008000000BE922449123EABAAAA2ABECD97
:1000A000CCCC4C3E00000080BEABAAAAAA3E000009
:1000B0000000BF000000803F000000000008417801
:1000C000D3BB4387D1133D190E3CC3BD4282AD2B38
:1000D0003E68EC8276BED98FE1A93E4C80EFFFBE30
:1000E00001C4FF7F3F00000000000000000024006A
:1000F00027002A0000000000250028002B00000037
:10010000000023002600290004040404040404045D
:1001100002020202020203030303030301020408B2
:100120001020408001020408102001020408102061
:1001300000000007000201000003040600000000A8
:10014000000000000200000000003300000000007A
:10015000000000000000000000000000000000009F
:10016000000000000000000000000000000000008F
:10017000000000000000000000000000000000007F
:10018000000000000000000000000000000000006F
:10019000000000000000000000000000000000005F
:1001A000000000000000000000000000000000004F
:1001B000000000000000000000000000000000003F
:1001C000000000000000000000000000000000002F
:1001D000000000000000000000000000000000001F
:1001E0000000000000000000000000004F000000C0
:1001F00007000700147F147F14242A7F2A12231378
:1002000008646236495552500005030000001C2264
:1002100081000081221C0014083E081408083E08D2
:10022000080050300000080808080800606000005E
:1002300020100804023E5149453E00427F400042E2
:10024000615149462141454B311814127F10274511
:100250004545393C4A494930017109050336494948
:100260004936064949291E00363600000056360038
:10027000000814224100141414141441221408001C
:100280000201510906324979413E7E1111117E7FEA
:10029000494949363E414141227F4141221C7F4923
:1002A0004949417F090909013E4149497A7F0808C6
:1002B000087F00417F41002040413F017F08142218
:1002C000417F404040407F020C027F7F0408107F46
:1002D0003E4141413E7F090909063E4151215E7F71
:1002E00009192946464949493101017F01013F4029
:1002F00040403F1F2040201F3F4038403F631408CC
:10030000146307087008076151494543007F414164
:100310000015167C16150041417F000402010204FD
:100320004040404040000102040020545454787F73
:10033000484444383844444420384444487F38547E
:10034000545418087E0901020C5252523E7F080490
:10035000047800447D40002040443D007F10284444
:100360000000417F40007C041804787C0804047875
:1003700038444444387C14141408081414187C7C41
:10038000080404084854545420043F4440203C408E
:1003900040207C1C2040201C3C4030403C44281025
:1003A00028440C5050503C4464544C44000836419E
:1003B0000000007F0000004136080008082A1C08E1
:1003C000081C2A0808006C05BC0511241FBECFEFCD
:1003D000D8E0DEBFCDBF12E0A0E0B1E0EAE4FEE18C
:1003E00002C005900D92AE33B107D9F716E0AEE327
:1003F000B2E001C01D92A133B107E1F713E0CAECEE
:10040000D3E004C02297FE010E941F0FC63CD10713
:10041000C9F70E946C070C940F020C940000F8942A
:100420000C94230F84E290E060E071E00E94110BD5
:10043000089580E00E944D0A08951F920F920FB612
:100440000F9211242F933F934F935F936F937F935A
:100450008F939F93AF93BF93EF93FF9380913E024F
:1004600090913F02892B29F0E0913E02F0913F02EA
:100470000995FF91EF91BF91AF919F918F917F91DE
:100480006F915F914F913F912F910F900FBE0F9001
:100490001F9018951F920F920FB60F9211242F9351
:1004A0003F934F935F936F937F938F939F93AF93FC
:1004B000BF93EF93FF938091400290914102892B6B
:1004C00029F0E0914002F09141020995FF91EF91EE
:1004D000BF91AF919F918F917F916F915F914F915C
:1004E0003F912F910F900FBE0F901F9018951F9264
:1004F0000F920FB60F9211242F933F938F939F93D8
:10050000AF93BF938091460290914702A091480219
:10051000B091490230914A020196A11DB11D232FCD
:100520002D5F2D3720F02D570196A11DB11D209371
:100530004A028093460290934702A0934802B093E8
:1005400049028091420290914302A0914402B091ED
:1005500045020196A11DB11D809342029093430272
:10056000A0934402B0934502BF91AF919F918F91A8
:100570003F912F910F900FBE0F901F9018959B01E8
:10058000AC017FB7F8948091420290914302A09110
:100590004402B091450266B5A89B05C06F3F19F0B3
:1005A0000196A11DB11D7FBFBA2FA92F982F8827B3
:1005B000860F911DA11DB11D62E0880F991FAA1F12
:1005C000BB1F6A95D1F7BC012DC0FFB7F89480918D
:1005D000420290914302A0914402B0914502E6B5D7
:1005E000A89B05C0EF3F19F00196A11DB11DFFBFEB
:1005F000BA2FA92F982F88278E0F911DA11DB11DED
:10060000E2E0880F991FAA1FBB1FEA95D1F7861B4E
:10061000970B885E9340C8F22150304040405040D4
:1006200068517C4F211531054105510571F608953A
:10063000789484B5826084BD84B5816084BD85B5BD
:10064000826085BD85B5816085BDEEE6F0E0808184
:1006500081608083E1E8F0E01082808182608083A5
:10066000808181608083E0E8F0E080818160808328
:10067000E1EBF0E0808184608083E0EBF0E080815A
:1006800081608083EAE7F0E08081846080838081FC
:1006900082608083808181608083808180688083A4
:1006A0001092C1000895482F50E0CA01845E9E4F09
:1006B000FC012491485F5E4FFA0184918823C1F0C8
:1006C000E82FF0E0EE0FFF1FE651FF4FA591B49128
:1006D000662341F49FB7F8948C91209582238C93E4
:1006E0009FBF08959FB7F8948C91822B8C939FBFE6
:1006F0000895482F50E0CA01805D9E4FFC0124916F
:10070000CA01845E9E4FFC019491485F5E4FFA01DE
:100710003491332309F440C0222351F1233071F086
:10072000243028F42130A1F0223011F514C02630F5
:10073000B1F02730C1F02430D9F404C0809180009A
:100740008F7703C0809180008F7D8093800010C0E0
:1007500084B58F7702C084B58F7D84BD09C0809138
:10076000B0008F7703C08091B0008F7D8093B00080
:10077000E32FF0E0EE0FFF1FEC50FF4FA591B49177
:100780002FB7F894662321F48C919095892302C0A9
:100790008C91892B8C932FBF089508951F920F92EF
:1007A0000FB60F9211242F933F934F938F939F93E4
:1007B000EF93FF934091C60020918B0230918C0201
:1007C0002F5F3F4F2F73307080918D0290918E027A
:1007D0002817390759F0E0918B02F0918C02E55B04
:1007E000FD4F408330938C0220938B02FF91EF9159
:1007F0009F918F914F913F912F910F900FBE0F902E
:100800001F901895E091DF02F091E002E05CFF4F4D
:100810008191919120813181821B930B8F73907014
:10082000892B11F00E94CD0308951F920F920FB6ED
:100830000F9211242F933F934F935F936F937F9366
:100840008F939F93AF93BF93EF93FF932091CF022A
:100850003091D0028091D1029091D20228173907AD
:1008600031F48091C1008F7D8093C10016C0E0916A
:10087000D102F091D202E157FD4F40818091D10227
:100880009091D202019660E470E00E94E80E90938D
:10089000D2028093D1024093C600FF91EF91BF91A5
:1008A000AF919F918F917F916F915F914F913F9108
:1008B0002F910F900FBE0F901F901895CF93DF933D
:1008C000DC011E968D919C911F97EC01C05CDF4F5F
:1008D000FC01EE5BFF4F28813981808191812817CF
:1008E0003907C9F75696ED91FC915797408121E061
:1008F00030E0C9015A960C905A9702C0880F991F90
:100900000A94E2F78095842380835696ED91FC91BA
:1009100057974081C9015B960C905B9702C0880F86
:10092000991F0A94E2F78095842380835696ED916F
:10093000FC9157974081C9015C960C905C9702C06E
:10094000880F991F0A94E2F7809584238083569636
:10095000ED91FC91579780815D960C905D9702C058
:10096000220F331F0A94E2F72095282320831C9638
:10097000ED91FC911D97EE5BFF4F808191819293E9
:100980008293DF91CF910895DC011C96ED91FC914B
:100990001D97E05CFF4F2191319180819181281B4F
:1009A000390B2F733070C9010895DC011C96ED914D
:1009B000FC911D97E05CFF4F20813181E054F040B5
:1009C000DF01AE5BBF4F8D919C91119728173907BE
:1009D00019F42FEF3FEF07C08D919C91E80FF91F9D
:1009E0008081282F30E0C9010895DC011C96ED912B
:1009F000FC911D97E05CFF4F20813181E054F04075
:100A0000DF01AE5BBF4F8D919C911197281739077D
:100A100019F42FEF3FEF10C08D919C911197E80FC3
:100A2000F91F20818D919C91119701968F73907081
:100A300011969C938E9330E0C9010895FC01868540
:100A40009785DC01A05CBF4FFC01EE5BFF4F2D9151
:100A50003C9111978081918128173907C1F708953A
:100A6000CF93DF93EC01462FEE85FF85E05CFF4FCF
:100A700080819181E054F040019660E470E00E9432
:100A8000E80E9C01DF01AE5BBF4F8D919C911197E9
:100A900028173907D1F3E05CFF4F80819181E05442
:100AA000F040E80FF91F4083EE85FF85E05CFF4FC3
:100AB00031832083EE89FF89208181E090E00D8CD5
:100AC00002C0880F991F0A94E2F7282B208381E047
:100AD00090E0DF91CF9108951092D6021092D50246
:100AE00088EE93E0A0E0B0E08093D7029093D80224
:100AF000A093D902B093DA028FE291E09093D402EE
:100B00008093D3028BE492E09093E0028093DF0223
:100B10008FE892E09093E2028093E10285EC90E00E
:100B20009093E4028093E30284EC90E09093E602D9
:100B30008093E50280EC90E09093E8028093E702D6
:100B400081EC90E09093EA028093E90286EC90E0D9
:100B50009093EC028093EB0284E08093ED0283E0BB
:100B60008093EE0287E08093EF0285E08093F002AD
:100B700081E08093F10208958FE391E09093F30276
:100B80008093F2021092F4021092F5021092F60293
:100B90001092F70208958F929F92AF92BF92CF92D8
:100BA000DF92EF92FF920F931F93CF93DF934C014D
:100BB0006B017C01AA24BB24C0E0D0E0C601F70190
:100BC00062814AE050E00E94C6068C01C6016EE2D6
:100BD0000E943706080F191FA00EB11E2196089417
:100BE000E11CF11CC330D10549F7C601F401658150
:100BF0004AE050E00E94C6069501280F391FC9013E
:100C0000DF91CF911F910F91FF90EF90DF90CF90E8
:100C1000BF90AF909F908F900895CF92DF92EF9208
:100C2000FF920F931F93CF93DF937C016B018A0197
:100C3000C0E0D0E00FC0D6016D916D01D701ED91FC
:100C4000FC910190F081E02DC7010995C80FD91FD3
:100C5000015010400115110571F7CE01DF91CF91C0
:100C60001F910F91FF90EF90DF90CF900895DC01DE
:100C7000ED91FC910190F081E02D09950895CF93BD
:100C8000DF93DB010D900020E9F71197A61BB70B4E
:100C9000EC01E881F9810280F381E02DAD01099535
:100CA000DF91CF9108954F925F927F928F929F92A2
:100CB000AF92BF92CF92DF92EF92FF920F931F936A
:100CC000DF93CF93CDB7DEB7A1970FB6F894DEBF11
:100CD0000FBECDBF2C01742ECB01223008F42AE0C8
:100CE00019A231E2C32ED12CCC0EDD1E822E992406
:100CF000AA24BB24672D752FA50194010E94FB0E29
:100D000079018A01C801B701A50194010E94B50EBD
:100D1000472D461B0894C108D1084A3014F4405DA1
:100D200001C0495CF6014083E114F104010511059D
:100D300021F07E2C5F2DC801DDCFC201B6010E94DB
:100D40003F06A1960FB6F894DEBF0FBECDBFCF9180
:100D5000DF911F910F91FF90EF90DF90CF90BF90A8
:100D6000AF909F908F907F905F904F900895DC019F
:100D70002115310541F4ED91FC910190F081E02DB8
:100D8000642F099508950E9453060895EF92FF92EB
:100D90000F931F939A01E62EFF2400E010E0B801A4
:100DA000A7010E94B7061F910F91FF90EF90089541
:100DB000813041F0813018F08230D1F409C01092B6
:100DC0006E00089580916F008D7F80936F0008956D
:100DD000809170008D7F8093700081E08093B000DF
:100DE0008091B100887F84608093B1001092B3003D
:100DF00008951F93182F80912501811711F09FEFFF
:100E000006C0E4E4F1E094918FEF80932501892FEF
:100E10000E94D806812F60E00E9479031F910895F7
:100E20001F920F920FB60F9211242F933F934F935F
:100E30005F936F937F938F939F93AF93BF93EF9342
:100E4000FF938091F8029091F902A091FA02B0917B
:100E5000FB020097A105B10551F1E091FC02F09170
:100E6000FD0280819091FE02892780838091F802A3
:100E70009091F902A091FA02B091FB02181619069E
:100E80001A061B06C4F48091F8029091F902A09111
:100E9000FA02B091FB020197A109B1098093F8020F
:100EA0009093F902A093FA02B093FB0204C08091E0
:100EB00025010E94F906FF91EF91BF91AF919F919B
:100EC0008F917F916F915F914F913F912F910F90F3
:100ED0000FBE0F901F901895CF93DF930E941803B9
:100EE0000E941902C2E0D4E00E9412022097E1F3AE
:100EF0000E940204F9CF0F931F939EE0699FF001B7
:100F00001124E80FF11DEE0FFF1FEF5BFE4F208154
:100F10008181283010F430E001C038E190E0029780
:100F2000880F991F522F569556955695580F530F67
:100F3000277081E090E0182F01C0110F2A95EAF781
:100F4000442321F08091010681FF47E020E030E05A
:100F5000A42FB0E0652F70E040E350E0012F009532
:100F600080910506909106062A173B0774F4249F8A
:100F7000F001259FF00D349FF00D1124E60FF71FAF
:100F8000E80FF91F8081812B0DC0249FF001259F60
:100F9000F00D349FF00D1124E60FF71FE80FF91F35
:100FA0008081802380832F5F3F4F27303105C1F63A
:100FB0001F910F910895FF920F931F93F82E00E059
:100FC0000BC0802F612F4F2D0E947B071F5F1930B0
:100FD000C1F70F5F0E3011F010E0F3CF1F910F91AA
:100FE000FF9008951F920F920FB60F921124BF9297
:100FF000CF92DF92EF92FF920F931F932F933F9325
:101000004F935F936F937F938F939F93AF93BF9310
:10101000CF93DF93EF93FF931AB814B880912A010E
:1010200061E00E947903C0900806D0900906B09054
:101030002E06EB2CFF24F601EE0DFF1D808580931C
:10104000B10080818093B20086E08B1508F4AEC0B9
:1010500020912F06263040F530E0A0910306B09194
:1010600004068901000F111F80E390E0E89EA001B3
:10107000E99E500DF89E500D1124FA01E00FF11F6A
:10108000EA0FFB1F60812E5F3F4F81E090E002C0BE
:10109000880F991F2A95E2F7862B8AB96BB9A40F9E
:1010A000B51FA00FB11F57C02C3060F5A0910306EB
:1010B000B091040630E0B901660F771F80E390E03D
:1010C000E89EA001E99E500DF89E500D1124FA01F2
:1010D000E60FF71FEA0FFB1F80818AB98BB9A40FB7
:1010E000B51FA60FB71F11964C912650304081E0D6
:1010F00090E002C0880F991F2A95E2F7842B84B9EB
:1011000045B956C0C22FD0E0A0910306B0910406A5
:10111000223130F5BE01660F771F80E390E0E89E34
:101120009001E99E300DF89E300D1124F901E60F73
:10113000F71FEA0FFB1F40812A9781E090E002C071
:10114000880F991FCA95E2F7842B8AB94BB9A20F71
:10115000B31FA60FB71F11968C9184B985B928C00B
:10116000AE01440F551F80E390E0E89E9001E99E98
:10117000300DF89E300D1124F901E40FF51FEA0F30
:10118000FB1F80818AB98BB9A20FB31FA40FB51FB3
:1011900011962C91629781E090E002C0880F991F10
:1011A000CA95E2F7822B84B925B902C01AB814B8DF
:1011B0008B2D8F5F80932E06883038F010922E068C
:1011C00080912F068F5F80932F0680912F068931A3
:1011D00090F110922F06809102068823B1F0809141
:1011E000010680FF12C01092020620910306309182
:1011F000040680910506909106069093040680935C
:10120000030630930606209305068091070688237F
:1012100091F010920706D0920D06C0920C068091B4
:101220000A0690910B069093090680930806D092C7
:101230000B06C0920A0680912A0160E00E947903A1
:10124000FF91EF91DF91CF91BF91AF919F918F91DE
:101250007F916F915F914F913F912F911F910F91CE
:10126000FF90EF90DF90CF90BF900F900FBE0F9048
:101270001F9018952F923F924F925F926F927F929C
:101280008F929F92AF92BF92DF92EF92FF920F9355
:10129000DF93CF93CDB7DEB760970FB6F894DEBF7C
:1012A0000FBECDBF90E0A0E0B0E0BC01CD010E9438
:1012B0005D0C20E030E04EEF52E40E94C90B9B0130
:1012C000AC010E94EB0C1B012C0180EF898391E0A3
:1012D000E92EF12C5E010894A11CB11CB7018827EE
:1012E00077FD8095982F0E945F0C21EF3BE840EB43
:1012F00050E40E94EB0C20E030E040EC5FE30E9401
:101300004E0D9B01AC01C5018E0D9F1D9A878987EB
:10131000CA01B90120E030E040E751E40E94650BCA
:101320009B01AC0160E070E08FE793E40E94640BE6
:101330000E94310CE985FA8560830894E11CF11C58
:10134000F8E0EF16F10451F683ED92E00E945E049E
:10135000809130068823C1F4D501E0910806F09110
:1013600009069E01275F3F4F8D9180838091270161
:1013700080873196A217B307B9F706C061E070E025
:1013800080E090E00E94BF02809107068823B1F7B9
:1013900060900A0670900B064E010894811C911C07
:1013A000530100E0CE010896988B8F87F401D1900D
:1013B0004F016D2D609570E0882777FD8095982FFF
:1013C0000E945F0C9B01AC01C201B1010E94EB0CB9
:1013D0006B877C878D879E876091280170E08827C6
:1013E00077FD8095982F0E945F0C9B01AC016B8567
:1013F0007C858D859E850E94EB0C9B01AC0160E095
:1014000070E08FE793E40E94640B0E94310CF501B9
:1014100060832091290120876D19060F0894A11C73
:10142000B11C8F8598898816990609F0BFCF009561
:10143000F301078380912701878781E08093070666
:1014400060960FB6F894DEBF0FBECDBFCF91DF918F
:101450000F91FF90EF90DF90BF90AF909F908F9093
:101460007F906F905F904F903F902F900895982FAE
:101470008091010680FF10C081E0809302069923CD
:1014800059F080910206882339F061E070E080E035
:1014900090E00E94BF02F5CF08951F93182F80910E
:1014A0002A0161E00E94530380912A0160E00E94BA
:1014B0007903809170008E7F809370008091B000DE
:1014C0008C7F8093B0008091B100877F8093B100C2
:1014D0008091B6008F7D8093B600809170008D7FE3
:1014E000809370008091B10083608093B1008091FF
:1014F000B1008B7F8093B10086E090E09093000371
:101500008093FF02109301061092020681E093E09F
:10151000909304068093030610FF02C081E894E0D4
:1015200090930606809305068EE096E09093090658
:1015300080930806409690930B0680930A061092BB
:1015400007068FE70E943A0980E090E00E94DB07DF
:1015500080E00E94370A8091FF02909100038093FF
:10156000B2008091700081608093700080910106CC
:1015700080FD07C00AC061E070E080E090E00E945A
:10158000BF02809102068823B1F781E08093300684
:101590001F910895AF92BF92CF92DF92EF92FF9288
:1015A0000F931F93DF93CF930F92CDB7DEB78C01CC
:1015B000AA24BB2485E0689F600111241CC0FF0C95
:1015C0000E30110560F48F2D8E2140E08F1509F447
:1015D00041E0802F692F99830E947B0799819F5F4B
:1015E000983069F70894A11CB11C0F5F1F4F85E06C
:1015F000A816B10451F0F501EC0DFD1DEB5BFE4F9B
:10160000FF24F39491E0E490DBCF0F90CF91DF9132
:101610001F910F91FF90EF90DF90CF90BF90AF9010
:1016200008956F927F928F929F92AF92BF92CF92C6
:10163000DF92EF92FF920F931F93CF93DF935C01A2
:101640004B017C01EE0CFF1CEE0CFF1CEA0CFB1C9A
:1016500083E390E0E80EF91ECC24DD248EE0682EB2
:10166000712C1AC0F401EC0FFD1FC80160810E94AB
:10167000CA0A21960A5F1F4FCA15DB059CF366E470
:1016800070E080E090E00E94BF0280E090E00E9465
:10169000DB070894C11CD11CEC14FD0434F0830159
:1016A0000C191D09C0E0D0E0E7CFDF91CF911F9169
:1016B0000F91FF90EF90DF90CF90BF90AF909F90F1
:1016C0008F907F906F9008955058BB27AA270ED017
:1016D00048C139D130F03ED120F031F49F3F11F4B0
:1016E0001EF42EC10EF4E095E7FB24C1E92F4AD188
:1016F00080F3BA17620773078407950718F071F42F
:101700009EF562C10EF4E0950B2EBA2FA02D0B01B1
:10171000B90190010C01CA01A0011124FF27591B36
:1017200099F0593F50F4503E68F11A16F040A22F3C
:10173000232F342F4427585FF3CF469537952795AD
:10174000A795F0405395C9F77EF41F16BA0B620BAC
:10175000730B840BBAF09150A1F0FF0FBB1F661FF3
:10176000771F881FC2F70EC0BA0F621F731F841F36
:1017700048F4879577956795B795F7959E3F08F05C
:10178000B3CF9395880F08F09927EE0F979587951B
:1017900008950CD0E6C0DED040F0D5D030F021F472
:1017A0005F3F19F0C7C0511110C1CAC0EBD098F308
:1017B0009923C9F35523B1F3951B550BBB27AA27D2
:1017C00062177307840738F09F5F5F4F220F331F44
:1017D000441FAA1FA9F333D00E2E3AF0E0E830D010
:1017E00091505040E695001CCAF729D0FE2F27D013
:1017F000660F771F881FBB1F261737074807AB07E1
:10180000B0E809F0BB0B802DBF01FF2793585F4F55
:101810002AF09E3F510568F08DC0D7C05F3FECF3C2
:10182000983EDCF3869577956795B795F7959F5F1A
:10183000C9F7880F911D9695879597F90895E1E06E
:10184000660F771F881FBB1F621773078407BA07CD
:1018500020F0621B730B840BBA0BEE1F88F7E09528
:10186000089598D088F09F5790F0B92F9927B751D5
:10187000A0F0D1F0660F771F881F991F1AF0BA9554
:10188000C9F712C0B13081F09FD0B1E008959CC07B
:10189000672F782F8827B85F39F0B93FCCF386954A
:1018A00077956795B395D9F73EF4909580957095A7
:1018B00061957F4F8F4F9F4F0895E89409C097FB24
:1018C0003EF490958095709561957F4F8F4F9F4F17
:1018D0009923A9F0F92F96E9BB279395F69587955B
:1018E00077956795B795F111F8CFFAF4BB0F11F41E
:1018F00060FF1BC06F5F7F4F8F4F9F4F16C08823C5
:1019000011F096E911C0772321F09EE8872F762FFA
:1019100005C0662371F096E8862F70E060E02AF03B
:101920009A95660F771F881FDAF7880F9695879527
:1019300097F9089597F99F6780E870E060E008954F
:101940009FEF80EC089500240A94161617061806D7
:101950000906089500240A941216130614060506B3
:101960000895092E0394000C11F4882352F0BB0F44
:1019700040F4BF2B11F460FF04C06F5F7F4F8F4FA7
:101980009F4F089557FD9058440F551F59F05F3FE2
:1019900071F04795880F97FB991F61F09F3F79F091
:1019A00087950895121613061406551FF2CF469513
:1019B000F1DF08C0161617061806991FF1CF869595
:1019C0007105610508940895E894BB276627772779
:1019D000CB0197F908950BD0C4CFB5DF28F0BADF5B
:1019E00018F0952309F0A6CFABCF1124EECFCADFB4
:1019F000A0F3959FD1F3950F50E0551F629FF00122
:101A0000729FBB27F00DB11D639FAA27F00DB11D7A
:101A1000AA1F649F6627B00DA11D661F829F222703
:101A2000B00DA11D621F739FB00DA11D621F839F8A
:101A3000A00D611D221F749F3327A00D611D231F60
:101A4000849F600D211D822F762F6A2F11249F57AE
:101A500050408AF0E1F088234AF0EE0FFF1FBB1FD1
:101A6000661F771F881F91505040A9F79E3F510570
:101A700070F060CFAACF5F3FECF3983EDCF3869521
:101A800077956795B795F795E7959F5FC1F7FE2B1B
:101A9000880F911D9695879597F90895FA01EE0F95
:101AA000FF1F30962105310599F16115710561F42B
:101AB0008038BFE39B0749F168949038810561F055
:101AC0008038BFEF9B0741F0992342F5FF3FE105C6
:101AD0003105210511F1E8940894E795D901AA236D
:101AE00029F4AB2FBE2FF85FD0F310C0FF5F70F466
:101AF000A695E0F7F73950F019F0FF3A38F49F77E0
:101B00009F930CD00F9007FC905808953EF018CF8B
:101B100060E070E080E89FE308954FE79F775F9370
:101B20004F933F932F939ED02F913F914F915F9171
:101B300052DF05C019F40EF0FDCE46CF01CF2ADFEB
:101B4000C8F39638C0F707F80F92E8942BE33AEA07
:101B500048EB5FE74EDF0F920F920F924DB75EB7E3
:101B60000F92C0D0E8E6F0E016D04F915F91EF9170
:101B7000FF91E595EE1FFF1F49F0FE57E0684427EF
:101B8000EE0F441FFA95E1F74195550B32D00F90B7
:101B900007FE26C00895DF93CF931F930F93FF9204
:101BA000EF92DF927B018C01689405C0DA2EEF0181
:101BB0001EDFFE01E894A59125913591459155913F
:101BC000AEF3EF0193DDFE019701A801DA9479F7F6
:101BD000DF90EF90FF900F911F91CF91DF910895CB
:101BE0009B01AC0160E070E080E89FE3D2CDA2CE23
:101BF000ACC0D0DEE8F39923D9F3940F511DBBF3A9
:101C00009150504094F059F0882332F0660F771FBE
:101C1000881F91505040C1F79E3F510544F7880FEF
:101C2000911D9695879597F908955F3FACF0983E82
:101C30009CF0BB27869577956795B79508F4B160BA
:101C40009395C1F7BB0F58F711F460FFE8CF6F5FB2
:101C50007F4F8F4F9F4FE3CFB8CE0EF076C070CE40
:101C6000689468CE97DEC8F39923D1F3C6F3DF9367
:101C7000CF931F930F93FF92C92FDD2788232AF05C
:101C80002197660F771F881FDAF720E030E040E8E1
:101C90005FEB9FE3883920F0803E30F021968F770C
:101CA00014DDE0E9F0E003C010DDEDEBF0E073DF00
:101CB0008B01BE01EC01FB2E6F5771097595771FE3
:101CC000880B990BFCDD28E132E741E35FE38FDE0F
:101CD000AF2D9801AE01FF900F911F91CF91DF9131
:101CE00005DD3FCEFA01DC01AA0FBB1F9B01AC0151
:101CF000BF5728F422273327442750781FC0B751F5
:101D000088F4AB2F0024469537952795011CA395A1
:101D1000D2F3002069F0220F331F441FB395DAF38A
:101D20000DD0D2CC61307105A0E88A07B94630F4F5
:101D30009B01AC016627772788279078309621F0A1
:101D4000208331834283538308959F3F49F091500C
:101D500028F4869577956795B7959F5F80389F4F54
:101D6000880F9695879597F90895629FD001739F84
:101D7000F001829FE00DF11D649FE00DF11D929F27
:101D8000F00D839FF00D749FF00D659FF00D992766
:101D9000729FB00DE11DF91F639FB00DE11DF91F8A
:101DA000BD01CF0111240895AA1BBB1B51E107C03F
:101DB000AA1FBB1FA617B70710F0A61BB70B881FDB
:101DC000991F5A95A9F780959095BC01CD0108956A
:101DD00097FB092E07260AD077FD04D0E5DF06D051
:101DE00000201AF4709561957F4F0895F6F790954D
:101DF00081959F4F0895A1E21A2EAA1BBB1BFD01DE
:101E00000DC0AA1FBB1FEE1FFF1FA217B307E407D9
:101E1000F50720F0A21BB30BE40BF50B661F771F31
:101E2000881F991F1A9469F7609570958095909511
:101E30009B01AC01BD01CF010895EE0FFF1F05907E
:0A1E4000F491E02D0994F894FFCF0F
:101E4A00737570657263616C6966726167696C69E2
:101E5A007374696365787069616C69646F63696FCB
:101E6A007573202000FF01030402130000000030F4
:101E7A00050D06C404F504D5041E0500000000CBB8
:101E8A00050D050D060D070D080D090D0A0D0B0DA3
:101E9A000C0D04040D0D03030D0D02020D0C050CAF
:101EAA00060C070C080C090C0A0C0B0C0D0C04048C
:101EBA000C0C03030C0C02020C0B050B060B070B94
:101ECA00080B090B0A0B0C0B0D0B04040B0B030379
:101EDA000B0B02020B0A050A060A070A080A090A74
:101EEA000B0A0C0A0D0A04040A0A03030A0A02026C
:101EFA000A0905090609070908090A090B090C094B
:101F0A000D0904040909030309090202090805085D
:101F1A000608070809080A080B080C080D08040433
:101F2A000808030308080202080705070607080746
:101F3A0009070A070B070C070D0704040707030321
:101F4A0007070202070605060706080609060A0623
:101F5A000B060C060D060404060603030606020217
:101F6A00060506050705080509050A050B050C05FA
:0E1F7A000D050404050503030505020205001C
:00000001FF
