:100000000C94A5000C9444010C9471010C94CD0047
:100010000C94CD000C94CD000C94CD000C943706BC
:100020000C94CD000C9419070C94CD000C94CD00C9
:100030000C94CD000C94CD000C94CD000C94CD000C
:100040000C949E010C94CD000C94F5020C943C038E
:100050000C94CD000C94CD000C94CD000C94CD00EC
:100060000C94CD000C94CD0007634236B79BD8A703
:100070001A39685618AEBAAB558C1D3CB7CC5763CD
:10008000BD6DEDFD753EF6177231BF000000803F7B
:1000900008000000BE922449123EABAAAA2ABECD97
:1000A000CCCC4C3E00000080BEABAAAAAA3E000009
:1000B0000000BF000000803F000000000008417801
:1000C000D3BB4387D1133D190E3CC3BD4282AD2B38
:1000D0003E68EC8276BED98FE1A93E4C80EFFFBE30
:1000E00001C4FF7F3F00000000000000000024006A
:1000F00027002A0000000000250028002B00000037
:10010000000023002600290004040404040404045D
:1001100002020202020203030303030301020408B2
:100120001020408001020408102001020408102061
:1001300000000007000201000003040600000000A8
:100140000000000002009304E30411241FBECFEF5F
:10015000D8E0DEBFCDBF12E0A0E0B1E0E4E6FBE115
:1001600002C005900D92AA32B107D9F716E0AAE2B3
:10017000B2E001C01D92AD31B107E1F711E0CAE470
:10018000D1E004C02297FE010E94AC0DC634D10715
:10019000C9F70E9493060C94CF000C940000F894C9
:1001A0000C94B00D8F929F92AF92BF92CF92DF923C
:1001B000FF920F931F93CF93DF9300E011E0FF2492
:1001C00081E0882E912CF801808191815C01CC2402
:1001D000DD24C0E0D0E0C4010C2E02C0880F991FBE
:1001E0000A94E2F7AA2797FDA095BA2F8A219B21AE
:1001F000AC21BD210097A105B10521F08C2F6F2DF9
:1002000041E003C08C2F6F2D40E00E94A206219692
:10021000CE30D10501F7F3940E5F1F4FF9E0FF16C2
:1002200091F6DF91CF911F910F91FF90DF90CF90CA
:10023000BF90AF909F908F9008951F930E94D2001F
:1002400010E00E94D20064EF71E080E090E00E9434
:10025000E60180E090E00E94020768EC70E080E038
:1002600090E00E94E6011F5F133059F70E94D20010
:1002700068EB7BE080E090E00E94E6011F9108952A
:1002800080E00E94740908951F920F920FB60F929A
:1002900011242F933F934F935F936F937F938F938B
:1002A0009F93AF93BF93EF93FF9380912A02909116
:1002B0002B02892B29F0E0912A02F0912B0209955B
:1002C000FF91EF91BF91AF919F918F917F916F912E
:1002D0005F914F913F912F910F900FBE0F901F9004
:1002E00018951F920F920FB60F9211242F933F93E0
:1002F0004F935F936F937F938F939F93AF93BF932E
:10030000EF93FF9380912C0290912D02892B29F07D
:10031000E0912C02F0912D020995FF91EF91BF9190
:10032000AF919F918F917F916F915F914F913F918D
:100330002F910F900FBE0F901F9018951F920F9244
:100340000FB60F9211242F933F938F939F93AF93E8
:10035000BF938091320290913302A0913402B09108
:100360003502309136020196A11DB11D232F2D5F5C
:100370002D3720F02D570196A11DB11D2093360277
:100380008093320290933302A0933402B0933502EB
:1003900080912E0290912F02A0913002B0913102F3
:1003A0000196A11DB11D80932E0290932F02A09360
:1003B0003002B0933102BF91AF919F918F913F91E5
:1003C0002F910F900FBE0F901F9018959B01AC01BD
:1003D0007FB7F89480912E0290912F02A091300265
:1003E000B091310266B5A89B05C06F3F19F0019628
:1003F000A11DB11D7FBFBA2FA92F982F8827860F67
:10040000911DA11DB11D62E0880F991FAA1FBB1F7E
:100410006A95D1F7BC012DC0FFB7F89480912E02E8
:1004200090912F02A0913002B0913102E6B5A89BC5
:1004300005C0EF3F19F00196A11DB11DFFBFBA2FF6
:10044000A92F982F88278E0F911DA11DB11DE2E0C5
:10045000880F991FAA1FBB1FEA95D1F7861B970B20
:10046000885E9340C8F2215030404040504068516F
:100470007C4F211531054105510571F60895789499
:1004800084B5826084BD84B5816084BD85B5826099
:1004900085BD85B5816085BDEEE6F0E08081816037
:1004A0008083E1E8F0E01082808182608083808137
:1004B00081608083E0E8F0E0808181608083E1EB0F
:1004C000F0E0808184608083E0EBF0E080818160F7
:1004D0008083EAE7F0E080818460808380818260AD
:1004E0008083808181608083808180688083109296
:1004F000C1000895482F50E0CA01845E9E4FFC0160
:100500002491485F5E4FFA0184918823C1F0E82F5F
:10051000F0E0EE0FFF1FE651FF4FA591B491662367
:1005200041F49FB7F8948C91209582238C939FBFC0
:1005300008959FB7F8948C91822B8C939FBF089558
:10054000482F50E0CA01805D9E4FFC012491CA01F2
:10055000845E9E4FFC019491485F5E4FFA01349196
:10056000332309F440C0222351F1233071F02430A9
:1005700028F42130A1F0223011F514C02630B1F05A
:100580002730C1F02430D9F404C0809180008F77E7
:1005900003C0809180008F7D8093800010C084B55F
:1005A0008F7702C084B58F7D84BD09C08091B00073
:1005B0008F7703C08091B0008F7D8093B000E32FD0
:1005C000F0E0EE0FFF1FEC50FF4FA591B4912FB755
:1005D000F894662321F48C919095892302C08C9124
:1005E000892B8C932FBF089508951F920F920FB6F9
:1005F0000F9211242F933F934F938F939F93EF93D9
:10060000FF934091C60020917702309178022F5FCE
:100610003F4F2F7330708091790290917A022817A2
:10062000390759F0E0917702F0917802E95CFD4FCB
:1006300040833093780220937702FF91EF919F914E
:100640008F914F913F912F910F900FBE0F901F9060
:100650001895E091CB02F091CC02E05CFF4F8191C4
:10066000919120813181821B930B8F739070892B24
:1006700011F00E94F40208951F920F920FB60F928C
:1006800011242F933F934F935F936F937F938F9397
:100690009F93AF93BF93EF93FF932091BB02309151
:1006A000BC028091BD029091BE022817390731F437
:1006B0008091C1008F7D8093C10016C0E091BD0282
:1006C000F091BE02E558FD4F40818091BD029091AE
:1006D000BE02019660E470E00E94750D9093BE0228
:1006E0008093BD024093C600FF91EF91BF91AF91FF
:1006F0009F918F917F916F915F914F913F912F913A
:100700000F900FBE0F901F901895CF93DF93DC01D1
:100710001E968D919C911F97EC01C05CDF4FFC01F0
:10072000EE5BFF4F2881398180819181281739073D
:10073000C9F75696ED91FC915797408121E030E042
:10074000C9015A960C905A9702C0880F991F0A94B3
:10075000E2F78095842380835696ED91FC9157971C
:100760004081C9015B960C905B9702C0880F991F6E
:100770000A94E2F78095842380835696ED91FC914C
:1007800057974081C9015C960C905C9702C0880F16
:10079000991F0A94E2F78095842380835696ED9101
:1007A000FC91579780815D960C905D9702C0220F57
:1007B000331F0A94E2F72095282320831C96ED919D
:1007C000FC911D97EE5BFF4F808191819293829304
:1007D000DF91CF910895DC011C96ED91FC911D975E
:1007E000E05CFF4F2191319180819181281B390B71
:1007F0002F733070C9010895DC011C96ED91FC91B6
:100800001D97E05CFF4F20813181E054F040DF0113
:10081000AE5BBF4F8D919C9111972817390719F442
:100820002FEF3FEF07C08D919C91E80FF91F80815A
:10083000282F30E0C9010895DC011C96ED91FC9150
:100840001D97E05CFF4F20813181E054F040DF01D3
:10085000AE5BBF4F8D919C9111972817390719F402
:100860002FEF3FEF10C08D919C911197E80FF91F6A
:1008700020818D919C91119701968F7390701196A4
:100880009C938E9330E0C9010895FC01868597857D
:10089000DC01A05CBF4FFC01EE5BFF4F2D913C9152
:1008A00011978081918128173907C1F70895CF9357
:1008B000DF93EC01462FEE85FF85E05CFF4F8081E2
:1008C0009181E054F040019660E470E00E94750D63
:1008D0009C01DF01AE5BBF4F8D919C911197281752
:1008E0003907D1F3E05CFF4F80819181E054F04003
:1008F000E80FF91F4083EE85FF85E05CFF4F3183F1
:100900002083EE89FF89208181E090E00D8C02C078
:10091000880F991F0A94E2F7282B208381E090E04A
:10092000DF91CF9108951092C2021092C10288EE19
:1009300093E0A0E0B0E08093C3029093C402A09340
:10094000C502B093C6028CE191E09093C0028093FF
:10095000BF0287E392E09093CC028093CB028BE7B7
:1009600092E09093CE028093CD0285EC90E090933C
:10097000D0028093CF0284EC90E09093D2028093D7
:10098000D10280EC90E09093D4028093D30281EC6A
:1009900090E09093D6028093D50286EC90E09093FD
:1009A000D8028093D70284E08093D90283E08093B9
:1009B000DA0287E08093DB0285E08093DC0281E04D
:1009C0008093DD0208958CE291E09093DF028093A2
:1009D000DE021092E0021092E1021092E202109206
:1009E000E30208958F929F92AF92BF92CF92DF92CF
:1009F000EF92FF920F931F93CF93DF934C016B0104
:100A00007C01AA24BB24C0E0D0E0C601F7016281CA
:100A10004AE050E00E94ED058C01C6016EE20E94A2
:100A20005E05080F191FA00EB11E21960894E11C47
:100A3000F11CC330D10549F7C601F40165814AE0D4
:100A400050E00E94ED059501280F391FC901DF9183
:100A5000CF911F910F91FF90EF90DF90CF90BF90BB
:100A6000AF909F908F900895CF92DF92EF92FF9278
:100A70000F931F93CF93DF937C016B018A01C0E03A
:100A8000D0E00FC0D6016D916D01D701ED91FC91C1
:100A90000190F081E02DC7010995C80FD91F0150C1
:100AA00010400115110571F7CE01DF91CF911F9113
:100AB0000F91FF90EF90DF90CF900895DC01ED91C2
:100AC000FC910190F081E02D09950895CF93DF937B
:100AD000DB010D900020E9F71197A61BB70BEC0185
:100AE000E881F9810280F381E02DAD010995DF9164
:100AF000CF9108954F925F927F928F929F92AF9283
:100B0000BF92CF92DF92EF92FF920F931F93DF93EA
:100B1000CF93CDB7DEB7A1970FB6F894DEBF0FBE67
:100B2000CDBF2C01742ECB01223008F42AE019A28B
:100B300031E2C32ED12CCC0EDD1E822E9924AA24A4
:100B4000BB24672D752FA50194010E94880D7901A2
:100B50008A01C801B701A50194010E94420D472DE9
:100B6000461B0894C108D1084A3014F4405D01C006
:100B7000495CF6014083E114F1040105110521F0FF
:100B80007E2C5F2DC801DDCFC201B6010E94660533
:100B9000A1960FB6F894DEBF0FBECDBFCF91DF9107
:100BA0001F910F91FF90EF90DF90CF90BF90AF908B
:100BB0009F908F907F905F904F900895DC0121155A
:100BC000310541F4ED91FC910190F081E02D642F0D
:100BD000099508950E947A050895EF92FF920F9368
:100BE0001F939A01E62EFF2400E010E0B801A70150
:100BF0000E94DE051F910F91FF90EF9008958130C4
:100C000041F0813018F08230D1F409C010926E00AA
:100C1000089580916F008D7F80936F00089580917B
:100C200070008D7F8093700081E08093B000809190
:100C3000B100887F84608093B1001092B300089562
:100C40001F93182F80911201811711F09FEF06C09A
:100C5000E4E4F1E094918FEF80931201892F0E94D8
:100C6000FF05812F60E00E94A0021F9108951F924E
:100C70000F920FB60F9211242F933F934F935F93D0
:100C80006F937F938F939F93AF93BF93EF93FF9354
:100C90008091E4029091E502A091E602B091E70212
:100CA0000097A105B10551F1E091E802F091E90248
:100CB00080819091EA02892780838091E40290915B
:100CC000E502A091E602B091E702181619061A068D
:100CD0001B06C4F48091E4029091E502A091E60223
:100CE000B091E7020197A109B1098093E4029093C2
:100CF000E502A093E602B093E70204C080911201DE
:100D00000E942006FF91EF91BF91AF919F918F912B
:100D10007F916F915F914F913F912F910F900FBEF7
:100D20000F901F901895CF93DF930E943F020E946F
:100D30004001C9E2D3E00E941D012097E1F30E9427
:100D40002903F9CF0F931F939EE0699FF0011124AF
:100D5000E80FF11DEE0FFF1FE25DFE4F2081818144
:100D6000283010F430E001C038E190E00297880F9D
:100D7000991F522F569556955695580F530F277019
:100D800081E090E0182F01C0110F2A95EAF7442363
:100D900021F08091ED0581FF47E020E030E0A42FB5
:100DA000B0E0652F70E040E350E0012F00958091A6
:100DB000F1059091F2052A173B0774F4249FF00186
:100DC000259FF00D349FF00D1124E60FF71FE80F5B
:100DD000F91F8081812B0DC0249FF001259FF00D0C
:100DE000349FF00D1124E60FF71FE80FF91F8081E3
:100DF000802380832F5F3F4F27303105C1F61F913D
:100E00000F910895FF920F931F93F82E00E00BC0EF
:100E1000802F612F4F2D0E94A2061F5F1930C1F74E
:100E20000F5F0E3011F010E0F3CF1F910F91FF9084
:100E300008951F920F920FB60F921124BF92CF9276
:100E4000DF92EF92FF920F931F932F933F934F9355
:100E50005F936F937F938F939F93AF93BF93CF9342
:100E6000DF93EF93FF931AB814B88091170161E0F4
:100E70000E94A002C090F405D090F505B0901A062B
:100E8000EB2CFF24F601EE0DFF1D80858093B10051
:100E900080818093B20086E08B1508F4AEC020916B
:100EA0001B06263040F530E0A091EF05B091F0052B
:100EB0008901000F111F80E390E0E89EA001E99EE8
:100EC000500DF89E500D1124FA01E00FF11FEA0FAA
:100ED000FB1F60812E5F3F4F81E090E002C0880FD2
:100EE000991F2A95E2F7862B8AB96BB9A40FB51F13
:100EF000A00FB11F57C02C3060F5A091EF05B09145
:100F0000F00530E0B901660F771F80E390E0E89EBE
:100F1000A001E99E500DF89E500D1124FA01E60F34
:100F2000F71FEA0FFB1F80818AB98BB9A40FB51F89
:100F3000A60FB71F11964C912650304081E090E0EB
:100F400002C0880F991F2A95E2F7842B84B945B90E
:100F500056C0C22FD0E0A091EF05B091F00522312C
:100F600030F5BE01660F771F80E390E0E89E9001A8
:100F7000E99E300DF89E300D1124F901E60FF71FA0
:100F8000EA0FFB1F40812A9781E090E002C0880FA2
:100F9000991FCA95E2F7842B8AB94BB9A20FB31FE8
:100FA000A60FB71F11968C9184B985B928C0AE01E0
:100FB000440F551F80E390E0E89E9001E99E300DBC
:100FC000F89E300D1124F901E40FF51FEA0FFB1F05
:100FD00080818AB98BB9A20FB31FA40FB51F1196D8
:100FE0002C91629781E090E002C0880F991FCA950A
:100FF000E2F7822B84B925B902C01AB814B88B2D38
:101000008F5F80931A06883038F010921A0680910C
:101010001B068F5F80931B0680911B06893190F120
:1010200010921B068091EE058823B1F08091ED05AA
:1010300080FF12C01092EE052091EF053091F0056F
:101040008091F1059091F2059093F0058093EF0562
:101050003093F2052093F1058091F305882391F0F8
:101060001092F305D092F905C092F8058091F6052B
:101070009091F7059093F5058093F405D092F705CC
:10108000C092F6058091170160E00E94A002FF91D6
:10109000EF91DF91CF91BF91AF919F918F917F9110
:1010A0006F915F914F913F912F911F910F91FF9001
:1010B000EF90DF90CF90BF900F900FBE0F901F90DA
:1010C00018952F923F924F925F926F927F928F92DC
:1010D0009F92AF92BF92DF92EF92FF920F93DF93B6
:1010E000CF93CDB7DEB760970FB6F894DEBF0FBED3
:1010F000CDBF90E0A0E0B0E0BC01CD010E94EA0AC3
:1011000020E030E04EEF52E40E94560A9B01AC0111
:101110000E94780B1B012C0180EF898391E0E92E5E
:10112000F12C5E010894A11CB11CB701882777FD42
:101130008095982F0E94EC0A21EF3BE840EB50E4A9
:101140000E94780B20E030E040EC5FE30E94DB0B74
:101150009B01AC01C5018E0D9F1D9A878987CA012D
:10116000B90120E030E040E751E40E94F2099B0120
:10117000AC0160E070E08FE793E40E94F1090E9407
:10118000BE0AE985FA8560830894E11CF11CF8E049
:10119000EF16F10451F68FEB92E00E9485038091E7
:1011A0001C068823C1F4D501E091F405F091F50502
:1011B0009E01275F3F4F8D9180838091140180872E
:1011C0003196A217B307B9F706C061E070E080E07E
:1011D00090E00E94E6018091F3058823B1F76090CA
:1011E000F6057090F7054E010894811C911C53017F
:1011F00000E0CE010896988B8F87F401D1904F01C3
:101200006D2D609570E0882777FD8095982F0E945E
:10121000EC0A9B01AC01C201B1010E94780B6B8703
:101220007C878D879E876091150170E0882777FD08
:101230008095982F0E94EC0A9B01AC016B857C8500
:101240008D859E850E94780B9B01AC0160E070E06B
:101250008FE793E40E94F1090E94BE0AF5016083C2
:101260002091160120876D19060F0894A11CB11C4E
:101270008F8598898816990609F0BFCF0095F301EC
:10128000078380911401878781E08093F30560963E
:101290000FB6F894DEBF0FBECDBFCF91DF910F9197
:1012A000FF90EF90DF90BF90AF909F908F907F90D6
:1012B0006F905F904F903F902F900895982F80915E
:1012C000ED0580FF10C081E08093EE05992359F071
:1012D0008091EE05882339F061E070E080E090E0D5
:1012E0000E94E601F5CF08951F93182F80911701F2
:1012F00061E00E947A028091170160E00E94A002E2
:10130000809170008E7F809370008091B0008C7F00
:101310008093B0008091B100877F8093B10080916D
:10132000B6008F7D8093B600809170008D7F809392
:1013300070008091B10083608093B1008091B10012
:101340008B7F8093B10086E090E09093EC028093D5
:10135000EB021093ED051092EE058DEE92E0909366
:10136000F0058093EF0510FF02C08DE694E09093A6
:10137000F2058093F1058AEF95E09093F50580934F
:10138000F40540969093F7058093F6051092F305C7
:101390008FE70E94610880E090E00E94020780E0F1
:1013A0000E945E098091EB029091EC028093B20062
:1013B000809170008160809370008091ED0580FDC8
:1013C00007C00AC061E070E080E090E00E94E601A2
:1013D0008091EE058823B1F781E080931C061F9170
:1013E00008955058BB27AA270ED048C139D130F0F4
:1013F0003ED120F031F49F3F11F41EF42EC10EF4C3
:10140000E095E7FB24C1E92F4AD180F3BA176207C0
:1014100073078407950718F071F49EF562C10EF406
:10142000E0950B2EBA2FA02D0B01B90190010C01F4
:10143000CA01A0011124FF27591B99F0593F50F40C
:10144000503E68F11A16F040A22F232F342F442764
:10145000585FF3CF469537952795A795F04053955C
:10146000C9F77EF41F16BA0B620B730B840BBAF02C
:101470009150A1F0FF0FBB1F661F771F881FC2F797
:101480000EC0BA0F621F731F841F48F487957795AB
:101490006795B795F7959E3F08F0B3CF9395880F62
:1014A00008F09927EE0F9795879508950CD0E6C020
:1014B000DED040F0D5D030F021F45F3F19F0C7C046
:1014C000511110C1CAC0EBD098F39923C9F3552329
:1014D000B1F3951B550BBB27AA2762177307840727
:1014E00038F09F5F5F4F220F331F441FAA1FA9F3DD
:1014F00033D00E2E3AF0E0E830D091505040E695CF
:10150000001CCAF729D0FE2F27D0660F771F881F2F
:10151000BB1F261737074807AB07B0E809F0BB0B1E
:10152000802DBF01FF2793585F4F2AF09E3F510542
:1015300068F08DC0D7C05F3FECF3983EDCF3869532
:1015400077956795B795F7959F5FC9F7880F911DB8
:101550009695879597F90895E1E0660F771F881FA4
:10156000BB1F621773078407BA0720F0621B730B57
:10157000840BBA0BEE1F88F7E095089598D088F099
:101580009F5790F0B92F9927B751A0F0D1F0660F6F
:10159000771F881F991F1AF0BA95C9F712C0B1308A
:1015A00081F09FD0B1E008959CC0672F782F8827E5
:1015B000B85F39F0B93FCCF3869577956795B395C9
:1015C000D9F73EF490958095709561957F4F8F4F38
:1015D0009F4F0895E89409C097FB3EF4909580953D
:1015E000709561957F4F8F4F9F4F9923A9F0F92FE9
:1015F00096E9BB279395F695879577956795B79567
:10160000F111F8CFFAF4BB0F11F460FF1BC06F5F4C
:101610007F4F8F4F9F4F16C0882311F096E911C05E
:10162000772321F09EE8872F762F05C0662371F07F
:1016300096E8862F70E060E02AF09A95660F771F93
:10164000881FDAF7880F9695879597F9089597F987
:101650009F6780E870E060E008959FEF80EC089558
:1016600000240A9416161706180609060895002481
:101670000A9412161306140605060895092E0394FB
:10168000000C11F4882352F0BB0F40F4BF2B11F46F
:1016900060FF04C06F5F7F4F8F4F9F4F089557FDCE
:1016A0009058440F551F59F05F3F71F04795880FD0
:1016B00097FB991F61F09F3F79F087950895121667
:1016C00013061406551FF2CF4695F1DF08C0161613
:1016D00017061806991FF1CF8695710561050894C4
:1016E0000895E894BB2766277727CB0197F90895DB
:1016F0000BD0C4CFB5DF28F0BADF18F0952309F07E
:10170000A6CFABCF1124EECFCADFA0F3959FD1F3C4
:10171000950F50E0551F629FF001729FBB27F00D9F
:10172000B11D639FAA27F00DB11DAA1F649F6627F4
:10173000B00DA11D661F829F2227B00DA11D621F43
:10174000739FB00DA11D621F839FA00D611D221FFD
:10175000749F3327A00D611D231F849F600D211DE1
:10176000822F762F6A2F11249F5750408AF0E1F084
:1017700088234AF0EE0FFF1FBB1F661F771F881FCD
:1017800091505040A9F79E3F510570F060CFAACF0D
:101790005F3FECF3983EDCF3869577956795B795B8
:1017A000F795E7959F5FC1F7FE2B880F911D9695E2
:1017B000879597F90895FA01EE0FFF1F30962105DE
:1017C000310599F16115710561F48038BFE39B071C
:1017D00049F168949038810561F08038BFEF9B072C
:1017E00041F0992342F5FF3FE1053105210511F153
:1017F000E8940894E795D901AA2329F4AB2FBE2FCA
:10180000F85FD0F310C0FF5F70F4A695E0F7F739EA
:1018100050F019F0FF3A38F49F779F930CD00F9057
:1018200007FC905808953EF018CF60E070E080E823
:101830009FE308954FE79F775F934F933F932F93D5
:101840009ED02F913F914F915F9152DF05C019F4C7
:101850000EF0FDCE46CF01CF2ADFC8F39638C0F791
:1018600007F80F92E8942BE33AEA48EB5FE74EDF84
:101870000F920F920F924DB75EB70F92C0D0E8E66D
:10188000F0E016D04F915F91EF91FF91E595EE1F3B
:10189000FF1F49F0FE57E0684427EE0F441FFA95FA
:1018A000E1F74195550B32D00F9007FE26C0089501
:1018B000DF93CF931F930F93FF92EF92DF927B0101
:1018C0008C01689405C0DA2EEF011EDFFE01E8945A
:1018D000A5912591359145915591AEF3EF0193DD99
:1018E000FE019701A801DA9479F7DF90EF90FF905D
:1018F0000F911F91CF91DF9108959B01AC0160E0A2
:1019000070E080E89FE3D2CDA2CEACC0D0DEE8F399
:101910009923D9F3940F511DBBF39150504094F08B
:1019200059F0882332F0660F771F881F915050407E
:10193000C1F79E3F510544F7880F911D96958795F5
:1019400097F908955F3FACF0983E9CF0BB278695D1
:1019500077956795B79508F4B1609395C1F7BB0F7C
:1019600058F711F460FFE8CF6F5F7F4F8F4F9F4FA5
:10197000E3CFB8CE0EF076C070CE689468CE97DE16
:10198000C8F39923D1F3C6F3DF93CF931F930F933B
:10199000FF92C92FDD2788232AF02197660F771F32
:1019A000881FDAF720E030E040E85FEB9FE38839FA
:1019B00020F0803E30F021968F7714DDE0E9F0E0F2
:1019C00003C010DDEDEBF0E073DF8B01BE01EC0135
:1019D000FB2E6F5771097595771F880B990BFCDDEE
:1019E00028E132E741E35FE38FDEAF2D9801AE01DE
:1019F000FF900F911F91CF91DF9105DD3FCEFA014E
:101A0000DC01AA0FBB1F9B01AC01BF5728F42227A2
:101A10003327442750781FC0B75188F4AB2F0024D8
:101A2000469537952795011CA395D2F3002069F0C0
:101A3000220F331F441FB395DAF30DD0D2CC61309F
:101A40007105A0E88A07B94630F49B01AC0166270E
:101A5000772788279078309621F02083318342833E
:101A6000538308959F3F49F0915028F486957795C8
:101A70006795B7959F5F80389F4F880F969587959C
:101A800097F90895629FD001739FF001829FE00D46
:101A9000F11D649FE00DF11D929FF00D839FF00DED
:101AA000749FF00D659FF00D9927729FB00DE11D99
:101AB000F91F639FB00DE11DF91FBD01CF01112476
:101AC0000895AA1BBB1B51E107C0AA1FBB1FA61785
:101AD000B70710F0A61BB70B881F991F5A95A9F7D7
:101AE00080959095BC01CD01089597FB092E07269E
:101AF0000AD077FD04D0E5DF06D000201AF47095F7
:101B000061957F4F0895F6F7909581959F4F0895C1
:101B1000A1E21A2EAA1BBB1BFD010DC0AA1FBB1FF1
:101B2000EE1FFF1FA217B307E407F50720F0A21B63
:101B3000B30BE40BF50B661F771F881F991F1A94D0
:101B400069F760957095809590959B01AC01BD01FA
:101B5000CF010895EE0FFF1F0590F491E02D099439
:041B6000F894FFCF27
:101B640000004000E000F00108021C07BE0FFF1F48
:101B74000000FF01030402130000000057043405B1
:101B8400EB031C04FC03450400000000F2040D05F3
:101B94000D060D070D080D090D0A0D0B0D0C0D0496
:101BA400040D0D03030D0D02020D0C050C060C07AC
:101BB4000C080C090C0A0C0B0C0D0C04040C0C0383
:101BC400030C0C02020C0B050B060B070B080B098C
:101BD4000B0A0B0C0B0D0B04040B0B03030B0B0276
:101BE400020B0A050A060A070A080A090A0B0A0C64
:101BF4000A0D0A04040A0A03030A0A02020A09056E
:101C0400090609070908090A090B090C090D090441
:101C1400040909030309090202090805080608075B
:101C24000809080A080B080C080D0804040808032E
:101C34000308080202080705070607080709070A38
:101C4400070B070C070D0704040707030307070224
:101C540002070605060706080609060A060B060C0F
:101C6400060D06040406060303060602020605061C
:101C7400050705080509050A050B050C050D0504EE
:0A1C8400040505030305050202052F
:00000001FF
